:100000000C943A000C9457000C9457000C94570031
:100010000C9457000C9457000C9457000C94570004
:100020000C9457000C9457000C9457000C945700F4
:100030000C9457000C9457000C9457000C945700E4
:100040000C9457000C9457000C9457000C945700D4
:100050000C9457000C9457000C9457000C945700C4
:100060000C9457000C9457000C9457000C945700B4
:100070000C94570011241FBECFEFD4E0DEBFCDBFDC
:1000800013E0A0E0B1E0E6E6F4E102C005900D92D5
:10009000A633B107D9F723E0A6E3B3E001C01D9270
:1000A000A735B207E1F70E942C090C94310A0C9491
:1000B00000000F931F93CF93DF93EC01FB0120E02F
:1000C00004E010E03AE02417F1F081818A30C1F0B9
:1000D00092819F3FA9F4B801681B710987FD739550
:1000E000CB0167E070E00E94BC098C0F9D1F50811E
:1000F000DC01A50FB11D8C91813011F41C9231836C
:100100002F5F3496E0CFDF91CF911F910F9108952B
:100110000F931F93CF93DF93EC018C0140E05AE0E3
:10012000461769F1942F9F5F691729F14917D9F391
:10013000E92FF0E0EE0FFF1FEE0FFF1FEC0FFD1F8A
:10014000D8012C9180812813EECF11968C911197B4
:100150002181821761F0A82F880FBB0B022E000CA3
:10016000330B21503109A217B307E9F6D8011196D4
:100170005C935183D8CF4F5F0C5F1F4FD1CFDF917E
:10018000CF911F910F910895FF920F931F93CF93DB
:10019000DF93062FEC0110E08AE0F82E101781F0B3
:1001A0008981853021F488818F5B0E9417058981C0
:1001B0008F3F11F0853009F4F9821F5F2496EECF4E
:1001C000DF91CF911F910F91FF900895DC01FB010A
:1001D00080E02AE08417C1F0318111969C9111973B
:1001E00039130FC030819C9139130BC092819F3F0E
:1001F00041F412969C911297915012969C931297EB
:1002000021838F5F3496E6CF12968C91811105C0C1
:1002100081E0809337031092000108955F926F92FE
:100220007F928F929F92AF92BF92CF92DF92EF9286
:10023000FF920F931F93CF93DF9300D000D01F92B4
:10024000CDB7DEB749835A836B837C838D83590195
:10025000812C912CC12CD12CF12C6624639487E441
:10026000582E80913703811191C00E94D5040E94BD
:10027000BB020E941F09CE0101960E940A020E9441
:100280000D05882331F00E940F05F82E7724739412
:1002900001C0712C8C81882391F08D81882379F0A5
:1002A0006A816F5F41E089810E9498049B01AC01E3
:1002B0006E2DC8010E94AD041C82C12CD12C772068
:1002C00081F08FEB8F0D873060F44FEF64E0852D68
:1002D0008F190E9498049B01AC016E2DC8010E94E9
:1002E000AD046E2DC8010E94C4004E2DB801C50199
:1002F0000E9459006E2DC8010E9488004E2DB80141
:10030000CE0101960E94E60080913703882319F000
:1003100087E50E941705772039F087E5F81204C0B9
:1003200060923703609200018D81811105C087E9D9
:10033000C816D10408F06D828CE48816910428F068
:10034000C8010E949E04812C912C80E00E94EF083D
:10035000811106C0772059F080E5F81208C005C069
:10036000711003C080E50E9417050E94D4032E2D52
:10037000A501B801CE0101960E943C038D8186251E
:10038000C80ED11C8FEF881A980A6BCF0F900F9070
:100390000F900F900F90DF91CF911F910F91FF90D1
:1003A000EF90DF90CF90BF90AF909F908F907F9015
:1003B0006F905F900895E1E6F0E080E8808310821E
:1003C000A89584B7877F84BFE0E6F0E080818861EC
:1003D0008083108208958093530360935103409368
:1003E00052030895CF93DF9300D000D01F92CDB772
:1003F000DEB7362F40915103282F50E061E070E0C6
:1004000080E090E00F900F900F900F900F90DF9191
:10041000CF910895CF93DF93EC0183E00E9489028E
:10042000882379F08981482F082E000C550B2091E4
:10043000520330E024173507ACF190915303890F34
:100440000BC081E00E948902882341F0898118163F
:100450004CF590915303891B898324C082E00E944C
:100460008902882339F088818823E1F09091530331
:10047000891B0BC080E00E948902882341F088819B
:10048000863080F490915303890F88830BC084E0F9
:100490000E948902882331F08C81882319F081E041
:1004A0008B831C82DF91CF9108956230710519F121
:1004B00070F46130710559F5FC01FF2724A1392F33
:1004C0003095922F932394A385A183231DC063307D
:1004D000710541F064307105D1F4FC01FF2784A15E
:1004E000892B0FC0FC01FF2784A1892B84A385A140
:1004F0009095892309C0FC01FF2784A1292F20950D
:10050000822384A385A1892B85A381E0089580E0BF
:100510000895E82FF0E0EE0FFF1FE85CFC4F8081AC
:10052000882321F0918181E0892702C080E090E05A
:1005300081700895E82FF0E0EE0FFF1FE85CFC4F9C
:100540008081811102C0818102C080E090E08170D1
:100550000895E82FF0E0EE0FFF1FE85CFC4F80816C
:100560000895E82FF0E0EE0FFF1FE85CFC4F90814C
:1005700081E0892708957F928F929F92AF92BF92D8
:10058000CF92DF92EF92FF920F931F93CF93DF935F
:10059000C8E3D3E056E5C52E51E0D52E66E0762EB1
:1005A00088818983F601019111916F015801BB2463
:1005B000F50124A1E12EFF2485A190E08E219F2149
:1005C00030E02E213F21232B31F0892B51F433E0F1
:1005D000832E912C0DC0892B41F488248394912C77
:1005E00007C094E0892E912C03C082E0882E912CC4
:1005F00064E070E0C8010E94550262E070E0C8014A
:100600000E945502872D8A95F1F7F50183A190E0AC
:10061000E822F92281E0EF2809F080E08883B40124
:10062000C8010E9455022296F3E0C234DF0709F0A8
:10063000B7CFDF91CF911F910F91FF90EF90DF9097
:10064000CF90BF90AF909F908F907F900895089526
:10065000CF93C62F0E94920880E691E00E94110875
:100660008C2F0E94010881E090E00E94070881E041
:1006700090E0CF910C940C08CF92DF92EF92FF9212
:100680000F931F93CF93DF93EC01D62E172FF42EE9
:10069000052FE22E0E942504888166E0681B99815F
:1006A00041E084E0891B0E94E703CD2DD12F10E0AB
:1006B00086E0D82E94E0C92E1E1579F089818A3003
:1006C00049F098816D2D691B41E09C2D981B892F65
:1006D0000E94E7031F5F2496EFCFCF2DD02F00E0BD
:1006E0007E0116E0F70181917F01813029F441E01C
:1006F000612F802F0E94E7031150A0F70F5F27960C
:10070000043071F7DF91CF911F910F91FF90EF901F
:10071000DF90CF900C94110482E093E00E94F207E6
:100720000E941F0980E00E94EF08811105C00E940D
:10073000D5040E941608F4CF08958EE093E00E943D
:10074000F2070E941F0980E00E94EF08811105C096
:100750000E94D5040E941608F4CF089588E193E022
:100760000E94F2070E941F0980E00E94EF08811199
:1007700007C00E94D5040E941F090E941608F4CFEA
:10078000089581E293E00E94F2070E941F0980E031
:100790000E94EF08811107C00E941F090E94D50422
:1007A0000E941608F4CF08958EE293E00E94F207AB
:1007B0000E941F0980E00E94EF08811107C00E947B
:1007C000D5040E941F090E941608F4CF08958530B1
:1007D00098F4673088F421E030E001C0220F6A9578
:1007E000EAF7E82FF0E0ED5BFC4F922F90958081C7
:1007F00089234111822B80830895853080F46730EE
:1008000070F421E030E001C0220F6A95EAF7E82F8A
:10081000F0E0ED5BFC4F8081282381E009F480E06B
:10082000089560914203E62FF0E0ED5BFC4F80817C
:100830000E945F04809142038F5F853018F480939B
:1008400042030895109242030895E3E4F3E0108216
:10085000118212821382148208950E943D040C9426
:1008600025049C01FC01FF2784A1832B84A395A16F
:10087000892F832B85A381E00895CF93DF93CCEE5E
:10088000D2E0899199910E94310482E0CA3FD80751
:10089000C1F783E090E40E94310480E090E80E9478
:1008A000310483E090E10E94310483E090E80E94EB
:1008B000310483E090E2DF91CF910C943104E09118
:1008C0004803F0E0EE0FFF1FEE51FD4F2081318114
:1008D000F901FF2795A1932B95A3ECEEF2E097E0A9
:1008E00020813181D901BB2795962C91959780FF66
:1008F00003C03095232301C0232B95962C93869516
:10090000915032969111ECCFE62FF0E0EE0FFF1FE1
:10091000EE51FD4F80819181FC01FF2785A19095CB
:10092000892385A360934803089580935503089510
:10093000762F682F842F909155030895FC019C0118
:10094000285D3F4F81818A3019F09281890F818320
:100950003496E217F307B1F70895FC0180E090E0C8
:10096000961769F081110BC071817A3029F42083C8
:1009700031834283538381E09F5F3496F1CF0895A2
:10098000CF93DF93EC010E94EA049E0140E050E027
:1009900062E17AE780E090E00E94E10930934C0345
:1009A00020934B03DF91CF9108958091490390915B
:1009B0004A030E94F9042091490330914A0380912F
:1009C0004B0390914C03820F931F90934A038093A3
:1009D000490308951092800084E080938100109272
:1009E0008500109284000895809184009091850084
:1009F0000895AC0180918400909185009C01241B96
:100A0000350B283E3340B0F7089520918400309193
:100A10008500820F931F0C94F9040C9477050C94B5
:100A200098050C947D050C9483050C9489050E940F
:100A300089050E9483058823E1F38CE291E0019708
:100A4000F1F70E94770581110C940F0508950C941D
:100A50009F05CF93DF9300D01F92CDB7DEB7809173
:100A6000FA029091FB02A091FC0289839A83AB83E6
:100A7000509A589A0E9414068FE690E00E94AB05A7
:100A800081E090E00E94030661E070E081E090E088
:100A90000E94EF050E94DB05CE0101960E945F05D2
:100AA0000F900F900F90DF91CF9108959C012150EE
:100AB00031093093CD0081508093CC000895CF93BD
:100AC000DF93EC01888199810E9456058A819BEF12
:100AD000980F943008F088E098E19093C900855011
:100AE000880F8093CA0081E0DF91CF9108958091B3
:100AF000C800881F8827881F08958091C80085FB3B
:100B0000882780F908958091C80086FB882780F99E
:100B10000895CF93C82F0E947D058823E1F380912B
:100B2000C80080648093C800C093CE00CF91089520
:100B30008091C80087FFFCCF8091CE000895CF93AD
:100B4000DF93EC018991882319F00E948905FACF7F
:100B5000DF91CF910895CF93DF931F92CDB7DEB78A
:100B60009E012F5F3F4F45E06DEF72E00E9420062F
:100B700091E0980F909301019981915097BD18BC15
:100B800095B5977039F095B5209101012770987F40
:100B9000922B95BD298130E0E82FF0E0E350FD4F26
:100BA000C901008002C0880F991F0A94E2F70F90D4
:100BB000DF91CF91089585B3897F85BB85B59091ED
:100BC00001019770887F892B85BD089585B5887F41
:100BD00085BD089585B382FB882780F90895009725
:100BE00019F0019741F0089584B58F736295660FEF
:100BF000660F607C05C084B563706295607F8F7CF2
:100C0000682B64BD0895009741F0019759F484B5AD
:100C10008E7F84BD84B5826002C084B58C7F84BD24
:100C200081E0089580E0089514BC15BC16BC18BC82
:100C300084B58E7F84BD84B5826084BD81E00895D3
:100C4000CF93DF93DC01FB0160E070E080E0C1E066
:100C5000D0E08417C9F09191BE01092E02C0660F41
:100C6000771F0A94E2F76F5F7F4F769567956A0F5B
:100C70007B1F02C0769567959A95E2F76F3F7105E5
:100C800019F010F08F5FE5CFF9016083DF91CF910C
:100C90000895692F0C94FD0341E0611101C040E00B
:100CA000692F0C94E7030C944C065F926F927F922D
:100CB0008F929F92AF92BF92CF92DF92EF92FF926C
:100CC0000F931F93CF93DF93562E872E942E5C01A4
:100CD000E62EF72EC62F660FDD0BC81BD10987FD48
:100CE000D395072F770F110B091B110997FD13954A
:100CF000D7FF03C077247A9402C07724739417FF38
:100D000003C066246A9402C066246394D7FF03C0BC
:100D1000D195C195D10917FF03C01195019511090E
:100D2000C017D107A4F06E01D594C794F92EA5146D
:100D300011F1692D8A2D9F2D0E944C06C01AD10AEF
:100D4000D7FE03C0CC0EDD1EF60CA70CF0CF680159
:100D5000D594C794E82EB81471F0692D8E2D9B2D73
:100D60000E944C06CC1ADD0AD7FE03C0C00ED11E6D
:100D7000E70CB60CF0CF692DC701DF91CF911F9121
:100D80000F91FF90EF90DF90CF90BF90AF909F902A
:100D90008F907F906F905F900C944C06FF920F9312
:100DA0001F93CF93DF93D82FF92E162FC72F042F21
:100DB000792F0E945506402F6D2F7C2F8D2F9F2D50
:100DC0000E945506402F612F7C2F812F9F2D0E945E
:100DD0005506402F612F7C2F8D2F9C2F0E9455068A
:100DE000DF91CF911F910F91FF9008950E942504EC
:100DF000E2E0F1E0118A14860895DF92EF92FF920B
:100E00000F931F93CF93DF93D82E7B01162F0F2DB7
:100E10008091040190910501D0E0019799F50F2D83
:100E20000D1BE0910A01F0910B018181C0E0D81700
:100E3000B8F480910A0190910B01FC012281C21744
:100E400068F42C2F4D2F6D2D0E94B708682F8E2D22
:100E50008C0F902F0E944C06CF5FEBCFDF5FDFCF70
:100E6000E0910A01F0910B018281C81740F460E023
:100E70008E2D8C0F902F0E944C06CF5FF1CF01502A
:100E800030C0DF5F1E2D1D0FE0910A01F0910B01B4
:100E90008181C0E0D817A8F480910A0190910B01DC
:100EA000FC012281C21768F72C2F4D2F6D2D0E9457
:100EB000B708682F812F9F2D9C0F0E944C06CF5F93
:100EC000EBCFE0910A01F0910B018281C81740F449
:100ED00060E0812F9F2D9C0F0E944C06CF5FF1CFC9
:100EE0001F5F812F902FDF91CF911F910F91FF9066
:100EF000EF90DF9008950F931F93CF938C01C0E084
:100F0000F80181918F01882341F00E94FD06BC0108
:100F1000CF5F853014F477FFF3CF8C2FCF911F91E3
:100F20000F9108950F931F93CF93DF9310920E01AB
:100F300040930F011092120100910A0110910B01D0
:100F40000115110509F449C09B01EC01F8018181EB
:100F5000609108017091090190E00E94BC09BC01F8
:100F600080910C0190910D010E94CD09CB016AE0A6
:100F700070E00E94BC09909311018093100130939E
:100F800007012093060140E250E0BE0183E191E0B9
:100F90000E94220A80910201909103010197E9F4D5
:100FA000FE0101900020E9F73197BF016C1B7D0B1A
:100FB000F80181818F5F0E94B30981502091040163
:100FC000309105012130310511F095E001C097E025
:100FD000981718F48EEF80931201DF91CF911F9133
:100FE0000F910895209104013091050121303105C0
:100FF00011F070E001C076E04FEF60E00E949207D0
:10100000089590E0909309018093080108959093CA
:1010100003018093020108959093050180930401D8
:10102000089590930B0180930A01089580914D03D8
:1010300090914E03019690934E0380934D0320911F
:101040001001309111018217930708F469C01092C2
:101050004E0310924D03E0910E01F0E0EE5FFE4F63
:10106000818981110AC080910F01823008F458C033
:10107000815080930F0110920E0180910E0190E03B
:10108000FC01EE5FFE4F2189222309F449C0409103
:10109000020150910301209112014115510521F0E7
:1010A0004130510599F024C0211122C06091060100
:1010B000709107018D5E9E4F0E947B0790E0019723
:1010C00090910E01890F80930E0112C0609106016C
:1010D0007091070140910401509105014130510583
:1010E00011F4720F01C0621B8D5E9E4F0E947B0740
:1010F000809112018F5F80931201082E000C990BD2
:10110000E0910A01F0910B01218130E028173907A5
:101110003CF41092120180910E018F5F80930E01BA
:101120000C941104CF93DF93C2E0D1E09B878A87B0
:101130000E942D0484E190E09F838E83DF91CF9104
:101140000C94F606009789F0FC012381621B67FD71
:1011500009C0062E000C770B248130E081E0621775
:1011600073070CF080E08170089580E00895CF93BC
:10117000DF93FC01892B79F18181481760F5928119
:10118000291748F59381A62FA91BA7FD24C00A2E75
:10119000000CBB0BC481D0E0AC17BD07E4F4622F98
:1011A0000E94B309480F858190E0BD010E94BC09EF
:1011B0000696242F269526952695E80FF91FE20F0F
:1011C000F11D808190E0477002C0959587954A9502
:1011D000E2F7817001C080E0DF91CF910895811125
:1011E0000DC080914F03882329F09091500381E036
:1011F000892702C080E090E08170089580E0089522
:1012000081110BC080914F03811103C08091500365
:1012100002C080E090E08170089580E0089581111F
:1012200003C080914F03089580E00895811105C0A7
:1012300090914F0381E08927089580E00895EFE4BD
:10124000F3E08081818389B1881F8827881F80838C
:10125000089557985F980895CF93DF93CDB7DEB781
:10126000C055D1090FB6F894DEBF0FBECDBF0E94A6
:10127000DB0164E170E080E991E00E9428030E94B4
:10128000290580E991E00E94C0040E94290981E0BB
:101290000E94950443E063E081E00E94EB010E941C
:1012A0008C0383E2E3E3F1E0DE01999601900D9275
:1012B0008A95E1F760E080E00E94F2012D962FAF61
:1012C0002D972E963FAF2E972F964FAF2F97609664
:1012D0005FAF609761966FAF619700E010E07801B3
:1012E000EE0CFF1CEE0CFF1C81E090E08C0F9D1FAC
:1012F000E80EF91E41E06AE080E00E949804F701E0
:1013000060837183828393830F5F1F4F0A301105BF
:1013100031F78AE0E82E8E010F5F1F4F9E01275D97
:101320003F4F2D964FAD2D972E965FAD2E972F9652
:101330006FAD2F9760967FAD609761968FAD619787
:101340000E940E010E949D0380910001882319F0E4
:101350000E94AE0302C00E94C1031092370381E0D5
:10136000809300019ECF002480FD060E660F11F0D1
:101370008695D1F7802D08950024552704C0080EC6
:10138000591F880F991F009729F076956795B8F334
:101390007105B9F7802D952F0895AA1BBB1B51E14C
:1013A00007C0AA1FBB1FA617B70710F0A61BB70BD5
:1013B000881F991F5A95A9F780959095BC01CD017A
:1013C0000895052E97FB1EF400940E94F80957FD1E
:1013D00007D00E94000A07FC03D04EF40C94F809D1
:1013E00050954095309521953F4F4F4F5F4F089551
:1013F00090958095709561957F4F8F4F9F4F089581
:10140000A1E21A2EAA1BBB1BFD010DC0AA1FBB1F08
:10141000EE1FFF1FA217B307E407F50720F0A21B7A
:10142000B30BE40BF50B661F771F881F991F1A94E7
:1014300069F760957095809590959B01AC01BD0111
:10144000CF010895FB01DC014150504048F001906C
:101450000D920020C9F701C01D9241505040E0F7A5
:061460000895F894FFCF8F
:101466000101000000000000140000000000000060
:101476000000000000000000000000000000000066
:101486000000000000000000000000000000000056
:101496000000000000000000000001010101010140
:1014A6000100000101010000000000000000000032
:1014B60000000000000003800340032000800310AA
:1014C600010505205F0400000000C61860004A01FF
:1014D6000000EAABAF00BE38FA001311910126896D
:1014E6006C01860800004804810002412400A4BA69
:1014F6004A00847C420000182200007C00000000A4
:101506006300101111002ED7E900C410E2002E125C
:10151600F1010E3AE8004CA58F003F3CE8002EBCD6
:10152600E8003F4244002EBAE8002E7AE800C600E2
:101536006300C600230090040201E0830F0081408F
:1015460012002E1240000EDAEA0044C51F012FBE1B
:10155600F8002E86E8002FC6F8003FBCF0013FBC1D
:1015660010002EF4E80131FE18018E10E20010C6BC
:10157600E800318D14012184F00171D7180171D66C
:101586001C012EC6E8002FBE10002EC664012FBE19
:1015960018012E38E8009F10420031C6E800314697
:1015A600450031D61D0151111501312A42001F9205
:1015B600F00127847000411004010E21E400444527
:1015C60000000000F001822000000EFAE801A1CD23
:1015D600F8002E84E80010DAE8012EFEE0004C8ABE
:1015E60023003E7AE80021B419010418E20008B08D
:1015F6006400A98C92008610E200ABD618016DC675
:1016060018012EC6E8002FBE1000367B08016D8635
:1016160010002E38F800E208C90031C66C013146C8
:101626004500B1D6AA0051111501317AE8001F1103
:10163600F1014C0CC1008410420086206200A222F7
:1016460000000340008003100380032000400020B8
:1016560000100008000400020001D0000800030684
:10166600080A42756C6C657472616D6121004741B0
:101676004D45204F56455200594F552057494E214A
:1016860000594F55204C4F534552203A280050419F
:061696005553454400001D
:00000001FF
